{
  "contractName": "Test",
  "abi": [
    {
      "inputs": [
        {
          "internalType": "uint256",
          "name": "num",
          "type": "uint256"
        }
      ],
      "name": "store",
      "outputs": [],
      "stateMutability": "nonpayable",
      "type": "function"
    },
    {
      "inputs": [],
      "name": "getName",
      "outputs": [
        {
          "internalType": "string",
          "name": "",
          "type": "string"
        }
      ],
      "stateMutability": "view",
      "type": "function"
    },
    {
      "inputs": [
        {
          "internalType": "string",
          "name": "_str",
          "type": "string"
        }
      ],
      "name": "setName",
      "outputs": [
        {
          "internalType": "string",
          "name": "",
          "type": "string"
        }
      ],
      "stateMutability": "nonpayable",
      "type": "function"
    },
    {
      "inputs": [],
      "name": "retrieve",
      "outputs": [
        {
          "internalType": "uint256",
          "name": "",
          "type": "uint256"
        }
      ],
      "stateMutability": "view",
      "type": "function"
    }
  ],
  "bytecode": "0x60806040526040518060400160405280600481526020017f74657374000000000000000000000000000000000000000000000000000000008152506001908051906020019061004f929190610062565b5034801561005c57600080fd5b50610166565b82805461006e90610134565b90600052602060002090601f01602090048101928261009057600085556100d7565b82601f106100a957805160ff19168380011785556100d7565b828001600101855582156100d7579182015b828111156100d65782518255916020019190600101906100bb565b5b5090506100e491906100e8565b5090565b5b808211156101015760008160009055506001016100e9565b5090565b7f4e487b7100000000000000000000000000000000000000000000000000000000600052602260045260246000fd5b6000600282049050600182168061014c57607f821691505b602082108114156101605761015f610105565b5b50919050565b61063d806101756000396000f3fe608060405234801561001057600080fd5b506004361061004c5760003560e01c806317d7de7c146100515780632e64cec11461006f5780636057361d1461008d578063c47f0027146100a9575b600080fd5b6100596100d9565b6040516100669190610365565b60405180910390f35b61007761016b565b60405161008491906103a0565b60405180910390f35b6100a760048036038101906100a291906103fb565b610174565b005b6100c360048036038101906100be919061055d565b61017e565b6040516100d09190610365565b60405180910390f35b6060600180546100e8906105d5565b80601f0160208091040260200160405190810160405280929190818152602001828054610114906105d5565b80156101615780601f1061013657610100808354040283529160200191610161565b820191906000526020600020905b81548152906001019060200180831161014457829003601f168201915b5050505050905090565b60008054905090565b8060008190555050565b60608160019080519060200190610196929190610229565b50600180546101a4906105d5565b80601f01602080910402602001604051908101604052809291908181526020018280546101d0906105d5565b801561021d5780601f106101f25761010080835404028352916020019161021d565b820191906000526020600020905b81548152906001019060200180831161020057829003601f168201915b50505050509050919050565b828054610235906105d5565b90600052602060002090601f016020900481019282610257576000855561029e565b82601f1061027057805160ff191683800117855561029e565b8280016001018555821561029e579182015b8281111561029d578251825591602001919060010190610282565b5b5090506102ab91906102af565b5090565b5b808211156102c85760008160009055506001016102b0565b5090565b600081519050919050565b600082825260208201905092915050565b60005b838110156103065780820151818401526020810190506102eb565b83811115610315576000848401525b50505050565b6000601f19601f8301169050919050565b6000610337826102cc565b61034181856102d7565b93506103518185602086016102e8565b61035a8161031b565b840191505092915050565b6000602082019050818103600083015261037f818461032c565b905092915050565b6000819050919050565b61039a81610387565b82525050565b60006020820190506103b56000830184610391565b92915050565b6000604051905090565b600080fd5b600080fd5b6103d881610387565b81146103e357600080fd5b50565b6000813590506103f5816103cf565b92915050565b600060208284031215610411576104106103c5565b5b600061041f848285016103e6565b91505092915050565b600080fd5b600080fd5b7f4e487b7100000000000000000000000000000000000000000000000000000000600052604160045260246000fd5b61046a8261031b565b810181811067ffffffffffffffff8211171561048957610488610432565b5b80604052505050565b600061049c6103bb565b90506104a88282610461565b919050565b600067ffffffffffffffff8211156104c8576104c7610432565b5b6104d18261031b565b9050602081019050919050565b82818337600083830152505050565b60006105006104fb846104ad565b610492565b90508281526020810184848401111561051c5761051b61042d565b5b6105278482856104de565b509392505050565b600082601f83011261054457610543610428565b5b81356105548482602086016104ed565b91505092915050565b600060208284031215610573576105726103c5565b5b600082013567ffffffffffffffff811115610591576105906103ca565b5b61059d8482850161052f565b91505092915050565b7f4e487b7100000000000000000000000000000000000000000000000000000000600052602260045260246000fd5b600060028204905060018216806105ed57607f821691505b60208210811415610601576106006105a6565b5b5091905056fea26469706673582212201e39b1bd6c966e19b179bcc5baacd89de9b6aa835ce9a18aae59f1f45d4c6adc64736f6c634300080b0033",
  "immutableReferences": {},
  "source": "// SPDX-License-Identifier: GPL-3.0\r\npragma solidity >=0.7.0 <0.9.0;\r\n\r\ncontract Test {\r\n    uint256 number;\r\n         string name =\"test\";\r\n\r\n         /**\r\n          * @dev Store value in variable\r\n          * @param num value to store\r\n          */\r\n         function store(uint256 num) public {\r\n             number = num;\r\n         }\r\n\r\n          function getName() public view returns(string memory) {\r\n             return name;\r\n         }\r\n\r\n         function setName(string memory _str) public returns(string memory) {\r\n             name = _str;\r\n             return name;\r\n         }\r\n\r\n\r\n         /**\r\n          * @dev Return value\r\n          * @return value of 'number'\r\n          */\r\n         function retrieve() public view returns (uint256){\r\n             return number;\r\n         }\r\n\r\n}\r\n\r\n",
  "sourcePath": "C:\\Users\\L107\\Desktop\\solidtiy\\contracts\\Test.sol",
  "compiler": {
    "name": "solc",
    "version": "0.8.11+commit.d7f03943.Emscripten.clang"
  },
  "schemaVersion": "3.4.4",
  "updatedAt": "2022-06-29T02:57:12.450Z",
  "devdoc": {
    "kind": "dev",
    "methods": {
      "retrieve()": {
        "details": "Return value",
        "returns": {
          "_0": "value of 'number'"
        }
      },
      "store(uint256)": {
        "details": "Store value in variable",
        "params": {
          "num": "value to store"
        }
      }
    },
    "version": 1
  },
  "userdoc": {
    "kind": "user",
    "methods": {},
    "version": 1
  }
}